:100000000C9472000C9493000C9493000C94930045
:100010000C9493000C9493000C9493000C94930014
:100020000C9493000C9493000C9493000C94930004
:100030000C9493000C9493000C9493000C949300F4
:100040000C9493000C94A30C0C9493000C949300C8
:100050000C9493000C9493000C9493000C949300D4
:100060000C9493000C94080C0C9493000C94930043
:100070000C9493000C9493000C9493000C949300B4
:100080000C9493000C9493000C9493000C949300A4
:100090000C9493000C9493000C9493000C94930094
:1000A0000C9493000C9493000C9493000C94930084
:1000B0000C9493000C9493000C9493000C94930074
:1000C0000C9493000C9493000C9493000C94930064
:1000D0000C9493000C9493000C9493000C94930054
:1000E0000C94930011241FBECFEFD1E2DEBFCDBF31
:1000F00000E00CBF12E0A0E0B2E0E6EFFCE100E0BF
:100100000BBF02C007900D92A831B107D9F715E0D7
:10011000A8E1B2E001C01D92A734B107E1F70E9447
:1001200095000C94790E0C94000084B7877F84BFEF
:1001300088E10FB6F89480936000109260000FBEC3
:100140000E94C10C0E9498010E9404070E94500165
:10015000FFCFCF92DF92EF92FF920F931F93DF9327
:10016000CF930F920F92CDB7DEB78C019AE0E92EB4
:1001700090E0F92EB7017F776E010894C11CD11C65
:10018000C60142E050E00E94690E86EF9FEFE80E44
:10019000F91E89819A81E80EF91E000F111F0E0DBC
:1001A0001F1D1F77C601B80142E050E00E94690E92
:1001B00029813A812E0D3F1DC9010F900F90CF91DB
:1001C000DF911F910F91FF90EF90DF90CF900895F6
:1001D000EF92FF920F931F93DF93CF930F920F92A3
:1001E000CDB7DEB77C010CE010E0B8017F77CE011F
:1001F000019642E050E00E94690E33E0EE0CFF1CD5
:100200003A95E1F789819A818E0D9F1D0C5010401F
:10021000080F191FC8010F900F90CF91DF911F9108
:100220000F91FF90EF900895DF93CF930F92CDB78A
:10023000DEB7BC017F77CE01019641E050E00E941D
:10024000690E89810F90CF91DF910895DF93CF934D
:100250000F92CDB7DEB76EE070E07F77CE010196EA
:1002600041E050E00E94690E89810F90CF91DF91AB
:100270000895DF93CF930F92CDB7DEB7682F70E06C
:10028000660F771F605F7F4F7F77CE01019641E059
:1002900050E00E94690E89810F90CF91DF910895FF
:1002A000CF92DF92FF920F931F93DF93CF930F9222
:1002B0000F92CDB7DEB705E010E01F77FF246E0187
:1002C0000894C11CD11C15C08F2D90E00E94E8003D
:1002D000BC016C5F7F4F7F77C60141E050E00E9418
:1002E000690E898180FF04C08F2D90E00E94C702B3
:1002F000F394C601B80141E050E00E94690E898183
:10030000F81610F366E070E07F77C60142E050E037
:100310000E94690E89819A810E94C7020F900F90F6
:10032000CF91DF911F910F91FF90DF90CF900895B3
:10033000CF92DF92EF92FF920F931F93DF93CF93B1
:1003400000D000D0CDB7DEB760E0E62E60E0F62E3C
:10035000B7017F77CE01039644E050E00E94690E1A
:100360008B819C81AD81BE819C01AD015E6B8373ED
:100370009070A070BE7B82179307A407B50711F099
:100380008BE011C0B7016C5F7F4F7F776E010894DF
:10039000C11CD11CC60141E050E00E94690E898158
:1003A000823029F08CE00E94770980E026C08AE044
:1003B00090E0E80EF91EB7017F77C60142E050E0F9
:1003C0000E94690E09811A818EEF9FEFE80EF91ED7
:1003D0008FEF9FE7E822F922C601B70142E050E023
:1003E0000E94690E89819A81081B190B1695079541
:1003F000169507950093220281E026960FB6F89491
:10040000DEBF0FBECDBFCF91DF911F910F91FF9047
:10041000EF90DF90CF9008957F770E94690E089546
:100420006F927F928F929F92AF92BF92CF92DF9204
:10043000FF920F931F93DF93CF93CDB7DEB729972A
:100440000FB6F894DEBF0FBECDBF05E010E01F77FA
:10045000FF243E010894611C711CE2E08E2E912C59
:100460008C0E9D1EA82EBB24C62EDD2417C08F2DFA
:1004700090E00E94E800BC017F77C40148E050E0B2
:100480000E94690E2C813D81832F99278A159B0537
:1004900021F430702C153D0561F0F394C301B801CF
:1004A00041E050E00E94690E8981F81600F3FF24B4
:1004B000FA948F2D29960FB6F894DEBF0FBECDBFEC
:1004C000CF91DF911F910F91FF90DF90CF90BF9060
:1004D000AF909F908F907F906F900895EF92FF92D2
:1004E0000F931F93DF93CF930F92CDB7DEB7182FE3
:1004F000062F7E010894E11CF11C812F602F0E94C1
:1005000010028F3F41F00F90CF91DF911F910F911B
:10051000FF90EF900895612F70E0660F771F615F85
:100520007F4F7F77C70141E050E00E94690E19813B
:10053000E4CF9C0196FD3068C9010895FF920F93A6
:100540001F93F82E092F892F90E080319105B8F480
:100550000E943901682F70E06F5F7F4F660F771F31
:1005600081E00E94BF08182F90E090680E941C0B49
:10057000812F0E94C407FC01F082018304C08F2DEB
:10058000902F0E94EA0D1F910F91FF9008952F92D6
:100590003F924F925F926F927F928F929F92AF9213
:1005A000BF92CF92DF92EF92FF920F931F93DF9350
:1005B000CF93CDB7DEB766970FB6F894DEBF0FBE08
:1005C000CDBF8B8B9C8B0E94E8002C018E010F5FAE
:1005D0001F4FC801B20148E050E00E940C02698040
:1005E0007A80640C751C28858F8190E0820F911DA4
:1005F0002E81820F911D880F991F0E9444080E942E
:10060000520B029690932402809323028F810E94C2
:10061000420B0E946D0BAA24BB240D8B1E8BC301C1
:100620000E941401C82EC30101960E941401982E45
:10063000C30102960E941401482F882ECC2009F491
:1006400086C320E1C21629F4892D992787FD90954C
:1006500036C331E1C31619F4C4019F77A3C18C2DB1
:100660008250873020F48C2D90E0039753C186E3AD
:10067000C81691F4892D992787FD9095880F991FA9
:100680000091230210912402080F191F0E94290BC8
:10069000F8019183808315C38C2D8B53843088F4AB
:1006A0008C2D90E0CB97880F991F00912302109119
:1006B0002402080F191F0E94290BF80191838083DF
:1006C0002BC1F5E1CF1679F4892D992787FD9095F7
:1006D000880F991FE0912302F0912402E80FF91F7F
:1006E00080819181ECC28C2D8A51843070F48C2DE4
:1006F00090E04A97880F991FE0912302F09124021D
:10070000E80FF91F8081918105C18C2D89598C30AA
:1007100008F050C0863028F426E0C20E00E010E059
:1007200003C00E94D40B8C010E94D40B5C0131EAFF
:10073000C316F1F03C1538F08FE9C81669F090EA5D
:10074000C91681F50FC0E3EACE16F1F0CE16B0F06F
:10075000F4EACF1639F51EC080E090E0A016B1068D
:1007600001F51DC080E090E0A016B106C1F419C0EB
:1007700080E090E0A016B106A4F411C080E090E003
:10078000A016B10674F00BC080E090E00A151B05BE
:1007900044F405C080E090E00A151B0514F081E0E8
:1007A00090E05C01A114B10409F4D8C2680C791C72
:1007B00080E0D5C227EAC21639F48DEF9FEF880E8C
:1007C000991E680C791C01C38C2D8056853208F067
:1007D000A5C0F4E7CF1649F40E94D40BAA24BB2489
:1007E000A81AB90AC5019F77B0C224E8C216D1F48D
:1007F000892D992787FD9095880F991FE0912302F5
:10080000F0912402E80FF91F2081318136FD306814
:10081000842F992787FD9095280F391F3F773183C3
:100820002083D3C20E94D40B5C010E94D40B8C01A4
:1008300038E7C31609F44FC03C15A8F088E6C8167F
:1008400071F18C1540F090E6C91619F1E4E6CE1668
:1008500009F05EC021C0FCE6CF1651F120E7C216B8
:1008600009F056C031C03EE7C31609F442C03C153A
:1008700040F08AE7C816B1F19CE7C91609F048C0F4
:1008800041C0E0E8CE16C1F1F2E8CF1609F040C051
:1008900036C00A0D1B1D3CC00A191B0939C098013E
:1008A0002A9D80012B9D100D3A9D100D112430C002
:1008B000A114B10419F48FE00E947709C801B501B1
:1008C0000E94560E9B0105C0C801B5010E94560E3C
:1008D0009C0189011DC00A2C02C0000F111F0A943F
:1008E000E2F716C00A2C02C0159507950A94E2F7A4
:1008F0000FC00A211B210CC00A291B2909C00A2587
:100900001B2506C00A2C02C0169507950A94E2F72B
:10091000C8019F770E941C0B81E021C23CEAC316EC
:1009200029F081EBC81609F040C003C00E94290BD2
:100930005C010E94760B882379F7DF8008850D0D16
:100940000D5F8E81080F0E94290B7C010E94290BEC
:100950008B8B9C8B0E94E8002C018D899E89B201B3
:1009600048E050E00E940C020E94290B3201680E00
:10097000791E8D2D81950E94420B0E94520BEE0C28
:10098000FF1C8E199F09909324028093230210E08C
:10099000C801880F991F0E9491079CEAC91609F0A7
:1009A00014C2C5010E941C0B10C2E8E5CE1619F452
:1009B0000E94290B03C0F7E5CF1619F40E94290BFA
:1009C000C6C129E5C21611F480E009C03CE5C31692
:1009D00049F481E00E94350B0E941C0B81E00E94CB
:1009E000350BB3C18AEAC81609F04FC0C301079698
:1009F0000E941401182FC30108960E9414011A873F
:100A00001986A82EBB24E985FA85AE2ABF2AC30120
:100A10000B960E941401082FC3010C960E9414012A
:100A2000182F0E94290BBC018A159B05BCF00C876E
:100A30001B86812F90E02B853C85822B932B86177C
:100A4000970764F07B01EA18FB08EE0CFF1CEE0C24
:100A5000FF1C8FE090E0E80EF91E03C0A3E0EA2E31
:100A6000F12CC3018E0D9F1D0E941401182F0894B4
:100A7000E11CF11CC3018E0D9F1D0E9414011E87F5
:100A80001D8690E0ED85FE8544C0FBEACF1609F097
:100A900046C0C30108960E941401D82E0E94D40BB0
:100AA0005C01892F990F990BC82E8301055F1F4F99
:100AB000E9E0EE2EF12C18C0C8010E9414018C153B
:100AC00061F4C80101960E9414018A1531F474E0A2
:100AD000872E912C8E0C9F1C0AC0DA9428E030E0FF
:100AE000E20EF31E085F1F4FDD2031F76AC1C4011B
:100AF0000296860D971D0E941401182FC4010396BB
:100B0000860D971D0E941401188B1F8690E0EF85BB
:100B1000F8898E2B9F2B680E791E80E026C1F2EBA0
:100B2000CF1621F4C4010E94570B3CCF23EBC21611
:100B300039F40E94290BBC01C4010E94620B45C11B
:100B400032E1C31651F4892D992787FD90952091A4
:100B50002202821B9109906CB2C08C2D865B83307F
:100B600008F074C08FE089150CF46BC05301A41811
:100B7000B508C4010E94E8002C018D899E89B2014C
:100B800048E050E00E940C0296EBC91611F580E097
:100B90000E94350B0E94C407FC01218033246B8125
:100BA000FC81F98B1A8A29893A892216330689F041
:100BB000822D0E946E02882E992787FD90950E94B3
:100BC000E8002C018D899E89B20148E050E00E9426
:100BD0000C028E8181950E94420B0E94520B209143
:100BE0002302309124028C01021B130B15950795EB
:100BF0000E94520B029690932402809323022F812D
:100C0000888590E0820F911D03962E81820F911DA1
:100C1000880F991F0E9444088F810E94420BC501D2
:100C20000E941C0B8B899C890E941C0BC8010E948E
:100C30001C0B8B8A9C8A69807A80640C751C80E00E
:100C400091C0C4010E94060E83E08CC034EBC31631
:100C500069F40E94290B0E94C407F4013196EE0F3B
:100C6000FF1FE80FF91F808191819CCE85EBC8168C
:100C7000A9F40E94290B182F092F282F392FC901F9
:100C80005C010E94290B0E94C407F4013196EE0F0B
:100C9000FF1FE80FF91F1083018397C09BEBC91654
:100CA00021F4C4010E949E0290C0ECEBCE1659F4D0
:100CB0000E94290B692D0E94580990E090680E94BB
:100CC0001C0B82E052C0FEEBCF1629F40E94290BC8
:100CD0000E943F093AC024E5C21669F40E94D40B71
:100CE000182F0E94D40B5C010E94290BB501412FE3
:100CF0000E941D092CC03FE4C31669F40E94D40B66
:100D00008C010E94D40B5C010E94290BB501A80143
:100D10000E94FD081CC083E3C81661F40E94D40B36
:100D20005C010E94290BB5010E941109992787FDDA
:100D300090950BC09EE2C91661F40E94D40B5C0131
:100D40000E94290BB5010E94EE080E941C0B81E055
:100D50000CC08EE00E94770981E004C083E0ECEAD9
:100D6000CE1631F0F1EBCF1619F0680E711C57CC8E
:100D70008F8181950E94420B28858F8190E0820FA0
:100D8000911D2E81820F911D880F991F0E9491073E
:100D900066960FB6F894DEBF0FBECDBFCF91DF9140
:100DA0001F910F91FF90EF90DF90CF90BF90AF9089
:100DB0009F908F907F906F905F904F903F902F907B
:100DC000089591E0892E912C92CE83E0CECFCF93DF
:100DD000DF93EC0197FD03C08DE00E947709CE01FF
:100DE0008070907C8050904829F48C2F0E94C4071A
:100DF0009C0106C0CE019F730E94A9009C0130682F
:100E0000C901DF91CF9108950E9488070E942601B1
:100E10000E94E20B80E090E00E941C0B089585E2A6
:100E200092E00895482F20911802309119020CC0C9
:100E3000F901EB5DFD4F8081841761F08181928122
:100E40009F770396280F391F83E02030380780F3FF
:100E5000E0E0F0E0CF0108951F9311E0812F0E94A0
:100E60001207892B11F01F5FC9F7812F1F91089579
:100E7000A82FB0E0B06840911802509119021DC02F
:100E8000FA01EB5DFD4F2181328137FF11C0C901AD
:100E900096958795782F60E009C08381948132967A
:100EA0008A179B0711F481E008956F5F6717A8F315
:100EB0003F772D5F3F4F420F531F83E0403058076D
:100EC000F8F280E00895782F9A012D5F3F4FA091AE
:100ED0001802B0911902FD01EB5DFD4F81819281F5
:100EE0008217930710F480E00895821B930B92837E
:100EF0008183FC01EA0FFB1FE85DFD4F70836623D1
:100F000011F0506801C05F775283418381E00895FA
:100F1000109225028DEF92E0909327028093260293
:100F200008950F931F93CF93DF938C01C091180204
:100F3000D0911902CB5DDD4F8881882319F081E0C3
:100F40000E947709809118029091190280179107E9
:100F500018F485E00E94770989819A81E09118024E
:100F6000F0911902E01BF10BF0931902E0931802C3
:100F7000EB5DFD4F1082800F911F92838183DF9183
:100F8000CF911F910F910895CF93DF930E94120785
:100F9000EC01009719F483E00E9477099E012D5F10
:100FA0003F4FC901DF91CF910895CF93DF930E9406
:100FB0001207EC01009719F483E00E947709298158
:100FC0003A813F77C901DF91CF910895EF92FF9267
:100FD0000F931F93CF93DF93E0901802F0901902C4
:100FE0003EC087010B5D1D4FF801C181D281DF77C3
:100FF00023968081882389F10E94850B882369F5D7
:10100000F80180810E943807882339F58091180201
:10101000909119029701281B390BFE01E80FF91F67
:10102000EB5DFD4FE20FF31FDC01AB5DBD4FA20F87
:10103000B31F04C08E918293215030402115310599
:10104000C9F7E0911802F0911902EB5DFD4F818123
:1010500092818C0F9D1F92838183EC0EFD1EF0E028
:10106000EF16F3E0FF0608F4BCCF80E0E81683E05B
:10107000F80619F081E00E947709DF91CF911F9166
:101080000F91FF90EF9008950F931F93CF93DF93ED
:101090008C01C0911802D0911902CB5DDD4F88817F
:1010A000882319F081E00E94770989819A8180174D
:1010B000910710F40E94E6070980DA81C02DC0175D
:1010C000D10718F484E00E947709E0911802F091AA
:1010D0001902E00FF11FF0931902E0931802EB5D83
:1010E000FD4F1082C01BD10BD283C183DF91CF9102
:1010F0001F910F910895FF920F931F93CF93DF934A
:10110000F82E8B01E0911802F0911902EB5DFD4F72
:101110009B012D5F3F4F818192818217930710F4CD
:101120000E94E6078F2D0E941207EC0160E0898182
:101130009A8197FD61E08F2DA8010E9463078823A3
:1011400019F482E00E9477098F2D0E9412074981CD
:101150005A815F77DE01FC0106C012968C911297CE
:101160008283415050401196319641155105A9F79F
:101170001882DF91CF911F910F91FF9008950F93E7
:101180001F93CF93DF93082FEB010E942C07182F9A
:10119000882319F486E00E947709812F602FAE0121
:1011A0000E9463078823A1F40E94E6070E942C078F
:1011B000182F882319F486E00E947709812F602F69
:1011C000AE010E946307882319F482E00E94770928
:1011D000812FDF91CF911F910F9108950F931F934E
:1011E0008B010E94C407000F111F080F191FF8017F
:1011F000818192811F910F910895EF92FF920F9339
:101200001F938B017A010E94C407000F111F080F62
:10121000191FF801F282E1821F910F91FF90EF9068
:1012200008950F931F938B010E94C407080F191F85
:10123000F80181811F910F910895FF920F931F93E1
:101240008B01F42E0E94C407080F191FF801F182C8
:101250001F910F91FF900895982F8450823058F07D
:10126000983049F0993049F09A3039F087E00E947F
:10127000770980E0089581E0089582E00895EF9273
:10128000FF921F93182F0E94D5077C01812F0E9487
:10129000C407FC0180810E942C09682FC7010197B7
:1012A00070E00E94420ECB011F91FF90EF900895D5
:1012B000FF920F931F938C01F62E862F0E942C090C
:1012C00090E0809FB001819F700D909F700D112460
:1012D0006F5F7F4F80E00E94BF08182F0E94C407F5
:1012E000FC01F082812F1F910F91FF9008951F93B1
:1012F000182F85E40E944A0C82E50E944A0C82E580
:101300000E944A0C8AE30E944A0C812F8F5B0E9444
:101310004A0C8AE00E944A0CFFCFEF92FF920F9393
:101320001F93CF93DF93EC01FB0177FF05C08DE2A4
:101330008993F095E195FF4F20E137E2EE2400E03C
:1013400010E0CF01B9010E94560ECB016115710565
:1013500019F0EE24E39405C0EE2019F42130310594
:1013600011F4805D8993C9016AE070E00E94560E15
:10137000462FF72E0F5F1F4F0530110551F0CF019B
:10138000B9010E94560EFC01242F3F2DC9019C017A
:10139000D8CF1882DF91CF911F910F91FF90EF90DE
:1013A0000895AF92BF92CF92DF92EF92FF920F9388
:1013B0001F93DF93CF9300D00F920F92CDB7DEB77C
:1013C000F82E882329F40E94B70BFC01108294C0E8
:1013D00081E0F816F9F480E00E94A80B0E945B0CF3
:1013E0008C0181E00E94350B0F5F1F4FB8010E94F6
:1013F0007B0880E00E94A80B8C0181E00E94350BE5
:101400000E94C407B8010E947D0C0E94290B0E9413
:10141000290B72C08F2D8250833028F086E0F81699
:1014200009F064C01FC082E0F81659F480E00E9401
:10143000A80B9C01D82EE32E932F0E945B0C8C01ED
:1014400022C083E0F81671F480E00E94C50BBC0155
:10145000CE0101960E948D0900E010E09E012F5FF1
:101460003F4F08C080E00E94350B89831A82F4CF79
:101470000F5F1F4FF901E00FF11F80818823C1F733
:10148000C901D22EE92E81E00E94A80B0E945B0CBC
:10149000080F191F0F5F1F4F80E0B8010E94BF089F
:1014A000C82E81E00E94A80B5C0182E0F81631F49E
:1014B00080E00E94A80B9C01D82EE32E8C2D0E9468
:1014C000C407182F092FB5010E947D0C812F902F82
:1014D0006D2D7E2D0E94990C0E94290B0E94290BD4
:1014E0008C2D90E090680E941C0B06C085E0F816D9
:1014F00019F088E00E9477090F900F900F900F90DD
:101500000F90CF91DF911F910F91FF90EF90DF909F
:10151000CF90BF90AF9008951F93182F0E94290B72
:10152000113019F40E94370C04C0123031F40E94BB
:101530003E0C90E00E941C0B03C088E00E947709DB
:101540001F910895FF920F931F93CF93DF93EC01A8
:10155000F62E97FF10C003C00E944A0CE8018E01CE
:101560000F5F1F4FCE010E9414018823A9F706C008
:1015700021960E944A0C88818823D1F7FF2019F018
:101580008AE00E944A0CDF91CF911F910F91FF904A
:1015900008950F931F93DF93CF93CDB7DEB72897AE
:1015A0000FB6F894DEBF0FBECDBF813019F40E9494
:1015B000B70B0CC0823071F40E94D40BBC018E01B9
:1015C0000F5F1F4FC8010E948D09C80161E00E9492
:1015D000A20A25C0843019F40E94B70B0CC08530D4
:1015E00061F40E94D40BBC018E010F5F1F4FC80134
:1015F0000E948D09C80160E0EACF833031F40E9477
:10160000D40B0E944A0C8AE004C0863029F40E9460
:10161000D40B0E944A0C03C088E00E9477090E9404
:10162000290B28960FB6F894DEBF0FBECDBFCF9121
:10163000DF911F910F910895E0911C02F0911D021E
:101640003296F0931D02E0931C02329793838283BB
:101650000895E0911C02F0911D02808191813297E2
:10166000F0931D02E0931C020895282F30E0220F12
:10167000331FE0911C02F0911D02E21BF30B8081ED
:1016800091810895992787FD9095880F991F209142
:101690001C0230911D02280F391F30931D02209328
:1016A0001C02089580911C0290911D020895880FDC
:1016B000991FE0911A02F0911B02E80FF91F808137
:1016C00091810895880F991FE0911A02F0911B02F1
:1016D000E80FF91F71836083089580911C02909137
:1016E0001D0290931F0280931E02089540E02091F6
:1016F0001C0230911D0280911E0290911F0228173A
:10170000390709F441E0842F0895682F70E070686C
:1017100080911A0290911B0220911C0230911D02AF
:10172000281B390B359527952F5F3F4FFC0140E073
:1017300050E009C0819191918617970711F481E0DB
:1017400008954F5F5F4F42175307A0F380E008955D
:10175000282F30E0220F331FE0911C02F0911D0270
:10176000E21BF30B808191810E94E7060895E091CE
:101770001C02F0911D02808191813297F0931D022D
:10178000E0931C020E94E7060895282F30E0220F04
:10179000331FE0911C02F0911D02E21BF30B8081CC
:1017A00091810E9499020895E0911C02F0911D021E
:1017B000808191813297F0931D02E0931C020E9478
:1017C000990208950F931F93082F0E940F079C0101
:1017D00090931B0280931A022250304030931D02D6
:1017E00020931C0210E0C8010196880F991F0E94E7
:1017F0004408000F111F80911C0290911D02800F60
:10180000911F90931D0280931C021F910F910895C8
:101810001F920F920FB60F920BB60F9211242F93B7
:101820003F934F938F939F93EF93FF938091250561
:101830009091C600E82FF0E0EA5DFA4F90838F5F49
:101840008F71809325054FEF20E931E045B98CE297
:1018500091E0F9013197F1F70197D9F715B88CE2CA
:1018600091E0F9013197F1F70197D9F7EFCF809126
:10187000250590914605891B8F7108959091460525
:10188000E6E2F5E0E90FF11D80819F5F9F71909383
:1018900046050895982F8A3039F48091C00085FF5D
:1018A000FCCF8DE08093C6008091C00085FFFCCF07
:1018B0009093C60008950F931F93CF93DF938C01ED
:1018C00097FD03C0C0E0D0E00DC0C0E0D0E001C093
:1018D0002196C8018C0F9D1F0E9414018823C1F717
:1018E00006C02196F80181918F018823D1F7CE019E
:1018F000DF91CF911F910F9108950F931F93CF9375
:10190000DF93EC01FB0177FF0BC08F010F5F1F4FCF
:10191000CF010E9414018993882331F0F801F5CF9B
:10192000819189938823E1F7DF91CF911F910F91E6
:101930000895FC0101C0319680818823E1F7CF0131
:101940000E947D0C08951F920F920FB60F921124E2
:101950008F939F93109285001092840080912002B3
:1019600090912102019690932102809320028FEFA3
:1019700084B985B99F918F910F900FBE0F901F90E2
:10198000189582E08093810080E197E2909389002E
:1019900080938800EFE6F0E08081826080838FEFA3
:1019A00084B908951F93813079F40E94290B182F70
:1019B0000E94290B813009F58091B1001770887F52
:1019C000812B8093B10019C08230A1F40E94290BB1
:1019D000182F0E94290B813081F483E08093B0009E
:1019E0008091B100877080688093B100239A109332
:1019F000B30003C088E00E9477091F9108951F93E8
:101A0000813061F40E94290B182F0E94290BE82FC6
:101A1000F0E0EE0FFF1FE85FFD4F36C0823061F44B
:101A20000E94290B182F0E94290BE82FF0E0EE0FDF
:101A3000FF1FE85FFD4F0DC08330C9F40E94290BE2
:101A4000182F0E94290BE82FF0E0EE0FFF1FE05047
:101A5000FE4F0190F081E02D208181E090E002C0F6
:101A6000880F991F1A95E2F7282B20831FC0843016
:101A7000D1F40E94290B182F0E94290BE82FF0E0C7
:101A8000EE0FFF1FE050FE4F0190F081E02D20810E
:101A900081E090E002C0880F991F1A95E2F78095C7
:101AA0008223808303C088E00E9477091F910895F4
:101AB0001F93813039F40E94D40B87708068809323
:101AC0007A004DC0823031F40E94D40B807C809328
:101AD0007C0045C0833001F510917C000E94D40B3E
:101AE0008F70107C812B80937C0080917A008064C1
:101AF00080937A0080917A0084FFFCCF80917A00F5
:101B0000806180937A003091780020917900922F43
:101B100080E0830F911D1DC08430F1F410917C0092
:101B20000E94D40B107C8F70182B106210937C00D5
:101B300080917A00806480937A0080917A0084FF9B
:101B4000FCCF80917A00806180937A008091790047
:101B500090E00E941C0B03C088E00E9477091F914F
:101B60000895813039F40E94D40B909389008093BA
:101B700088000895823039F48091200290912102EA
:101B80000E941C0B0895833079F40E94D40B9C01B1
:101B90001092210210922002809120029091210245
:101BA00082179307CCF30895843029F40E94D40B54
:101BB00080938100089588E00E947709089581301C
:101BC00029F480E49FE10E941C0B089588E00E94A4
:101BD00077090895292F30E02431310551F480E050
:101BE00061E070E00E94BF0890E090680E941C0BCA
:101BF000089589E00E9477090895882319F40E94C6
:101C0000290B089588E00E9477090895292F30E074
:101C10002031310519F40E94FD0D0895223131055E
:101C200019F40E94C90A08952331310519F40E945C
:101C30008C0A08952431310519F40E94D1090895C0
:101C40002531310519F40E94DF0D08952631310543
:101C500019F40E94FF0C08952731310519F40E94F0
:101C6000B10D08952A31310519F40E94580D0895D7
:101C70002931310519F40E94D20C089589E00E949F
:101C800077090895AA1BBB1B51E107C0AA1FBB1F00
:101C9000A617B70710F0A61BB70B881F991F5A95F8
:101CA000A9F780959095BC01CD01089597FB092E69
:101CB00007260AD077FD04D0E5DF06D000201AF40D
:101CC000709561957F4F0895F6F7909581959F4F98
:101CD0000895DC01CB01FC01F999FECF06C0F2BDED
:101CE000E1BDF89A319600B40D9241505040B8F7DA
:061CF0000895F894FFCFF7
:101CF6000000250028002B000000240027002A00F1
:081D0600000023002600290063
:00000001FF
