:100000000C9472000C9493000C9493000C94930045
:100010000C9493000C9493000C9493000C94930014
:100020000C9493000C9493000C9493000C94930004
:100030000C9493000C9493000C9493000C949300F4
:100040000C9493000C9493000C9493000C949300E4
:100050000C9493000C9493000C9493000C94E90B73
:100060000C9493000C946B0B0C9493000C949300E1
:100070000C9493000C9493000C9493000C949300B4
:100080000C9493000C9493000C9493000C949300A4
:100090000C9493000C9493000C9493000C94930094
:1000A0000C9493000C9493000C9493000C94930084
:1000B0000C9493000C9493000C9493000C94930074
:1000C0000C9493000C9493000C9493000C94930064
:1000D0000C9493000C9493000C9493000C94930054
:1000E0000C94930011241FBECFEFD1E2DEBFCDBF31
:1000F00000E00CBF14E0A0E0B2E0E4E7FBE100E0C8
:100100000BBF02C007900D92A432B107D9F717E0D8
:10011000A4E2B4E001C01D92A335B107E1F70E944B
:1001200095000C94B80D0C9400000E94550B0E9491
:10013000040C0E9440080E9457010E94B7050E94CB
:100140003101FFCF80E092E008959C0183E0220F0F
:10015000331F8A95E1F780910C0290910D02280FD0
:10016000391F20503E4FC901089520910A02309155
:100170000B0220503E4FFC01EE0FFF1FE20FF31F5A
:1001800040815181420F531FCA010895E82FF0E0CA
:10019000EE0FFF1FE05FFD4F8081089580910E02FA
:1001A0000895EF92FF920F931F93DF93CF93CDB7F4
:1001B000DEB728970FB6F894DEBF0FBECDBF40E084
:1001C0007E010894E11CF11C082F10E070E021C0B2
:1001D000E42FF0E0A3E0EE0FFF1FAA95E1F7809176
:1001E0000C0290910D02E80FF91FD701E050FE4F6D
:1001F00088E001900D928150E1F72B813C81832FA3
:1002000099278017910721F430702617370731F0AE
:100210004F5F809105024817D8F24FEF842F289640
:100220000FB6F894DEBF0FBECDBFCF91DF911F9107
:100230000F91FF90EF9008950F931F93182F062FA3
:10024000812F602F0E94D1008F3F19F01F910F91D5
:100250000895E12FF0E0EE0FFF1FE050FE4F1785ED
:10026000EFCF1F9310E017C0212F30E0F90183E09A
:10027000EE0FFF1F8A95E1F780910C0290910D021D
:10028000E80FF91FE050FE4F848180FF03C0C901D1
:100290000E94B6011F5F80910502181728F3809114
:1002A0000602909107020E94B6011F910895809165
:1002B000000290910102A0910202B09103029C0100
:1002C000AD015E6B83739070A070BE7B8217930745
:1002D000A407B50711F08BE005C0809104028230BD
:1002E00029F08CE00E942A0880E0089580910A029B
:1002F00090910B022091080230910902821B930B0E
:10030000969587959695879580932E0481E008951C
:100310009C0196FD3068C9010895FF920F931F93C9
:10032000F82E092F892F90E080319105B8F40E94B2
:10033000C600682F70E06F5F7F4F660F771F81E008
:100340000E947207182F90E090680E94690A812F1E
:100350000E947706FC01F082018304C08F2D902F4C
:100360000E94270D1F910F91FF9008952F923F92A9
:100370004F925F926F927F928F929F92AF92BF92B5
:10038000CF92DF92EF92FF920F931F93DF93CF9361
:10039000CDB7DEB763970FB6F894DEBF0FBECDBF03
:1003A0008B8BE92E0E94A5002C01DE011196FC0129
:1003B00088E001900D928150E1F769807A80640CA9
:1003C000751C28858F8190E0820F911D2E81820FF0
:1003D000911D880F991F0E94F7060E949F0A02969E
:1003E0009093300480932F048F810E948F0A0E9483
:1003F000BA0ACC24DD24F301F08091804281842E5E
:10040000FF2009F45BC3F0E1FF1629F4892D992739
:1004100087FD90950BC321E1F21619F4C4019F7773
:10042000A4C18F2D8250873020F48F2D90E0039748
:1004300053C136E3F31691F4892D992787FD9095E2
:10044000880F991F00912F0410913004080F191F75
:100450000E94760AF80191838083EAC28F2D8B5324
:10046000843088F48F2D90E0CB97880F991F0091EE
:100470002F0410913004080F191F0E94760AF8010A
:10048000918380832BC1F5E1FF1679F4892D99279B
:1004900087FD9095880F991FE0912F04F09130040B
:1004A000E80FF91F80819181C1C28F2D8A5184305C
:1004B00070F48F2D90E04A97880F991FE0912F04D8
:1004C000F0913004E80FF91F8081918105C18F2DD3
:1004D00089598C3008F050C0863028F426E0F20E9E
:1004E00000E010E003C00E94210B8C010E94210B50
:1004F0006C0131EAF316F1F03F1538F08FE9F81688
:1005000069F090EAF91681F50FC0E3EAFE16F1F002
:10051000FE16B0F0F4EAFF1639F51EC080E090E058
:10052000C016D10601F51DC080E090E0C016D106CE
:10053000C1F419C080E090E0C016D106A4F411C047
:1005400080E090E0C016D10674F00BC080E090E02F
:100550000C151D0544F405C080E090E00C151D0548
:1005600014F081E090E06C01C114D10409F4ADC233
:10057000680C791C80E0AAC227EAF21639F48DEFE4
:100580009FEF880E991E680C791CD6C28F2D80565D
:10059000853208F0A5C0F4E7FF1649F40E94210B4C
:1005A000CC24DD24C81AD90AC6019F7785C224E865
:1005B000F216D1F4892D992787FD9095880F991F00
:1005C000E0912F04F0913004E80FF91F2081318170
:1005D00036FD3068842F992787FD9095280F391FA5
:1005E0003F7731832083A8C20E94210B6C010E94B7
:1005F000210B8C0138E7F31609F44FC03F15A8F022
:1006000088E6F81671F18F1540F090E6F91619F1A9
:10061000E4E6FE1609F05EC021C0FCE6FF1651F1CB
:1006200020E7F21609F056C031C03EE7F31609F490
:1006300042C03F1540F08AE7F816B1F19CE7F91681
:1006400009F048C041C0E0E8FE16C1F1F2E8FF162B
:1006500009F040C036C00C0D1D1D3CC00C191D0911
:1006600039C098012C9D80012D9D100D3C9D100DD1
:10067000112430C0C114D10419F48FE00E942A085B
:10068000C801B6010E94930D9B0105C0C801B601C7
:100690000E94930D9C0189011DC00C2C02C0000F0B
:1006A000111F0A94E2F716C00C2C02C0159507958D
:1006B0000A94E2F70FC00C211D210CC00C291D2942
:1006C00009C00C251D2506C00C2C02C016950795E7
:1006D0000A94E2F7C8019F770E94690A81E0F6C197
:1006E0003CEAF31629F081EBF81609F041C003C08B
:1006F0000E94760A6C010E94C30A882379F70F8151
:100700001885100F1D5F8E81180F0E94760A5C01FC
:100710000E94760A8B8BE92E0E94A5002C01DE0137
:100720001196FC0188E001900D928150E1F70E9442
:10073000760A3201680E791E802F81950E948F0AF9
:100740000E949F0AAA0CBB1C8A199B099093300433
:1007500080932F04812F90E0880F991F0E944406F8
:100760009CEAF91609F0E8C1C6010E94690AE4C1D1
:10077000E8E5FE1619F40E94760A03C0F7E5FF16B5
:1007800019F40E94760A9AC129E5F21611F480E064
:1007900009C03CE5F31649F481E00E94820A0E94F8
:1007A000690A81E00E94820A87C18AEAF816A9F5DF
:1007B000F301F781FA871986F3018085C82EDD24BD
:1007C00029853A85C22AD32A138504850E94760A90
:1007D000BC018C159D05A4F01C871B86802F90E022
:1007E000EB85FC858E2B9F2B861797074CF0CB0152
:1007F0008C199D09880F991F880F991F0F9602C0A9
:1008000083E090E0F301E80FF91F818190E02081FF
:100810002E871D86ED85FE8532C0FBEAFF16A9F501
:10082000F30110850E94210B6C01892F990F990B00
:10083000982FD301199669E070E014C012968C913C
:100840001297891759F413968C9113978C1531F4DC
:10085000E4E08E2E912C860E971E07C01150685F23
:100860007F4F1896112351F763C1F301E80DF91D6D
:100870002281288B1F86838190E0EF85F8898E2B5B
:100880009F2B680E791E80E027C1F2EBFF1621F442
:10089000C4010E94A40A69CF23EBF21639F40E9426
:1008A000760ABC01C4010E94AF0A46C132E1F316C8
:1008B00051F4892D992787FD909520912E04821B54
:1008C0009109906CB3C08F2D865B833008F075C0A2
:1008D0008FE089150CF46CC06301C418D508C401FD
:1008E0000E94A5002C01DE011196FC0188E0019018
:1008F0000D928150E1F796EBF91611F50E94820AEC
:100900000E947706FC01218033246B81FC81F98BE6
:100910001A8A29893A892216330691F0822D0E947B
:100920001C01882E992787FD90950E94A5002C0117
:10093000DE011196FC0188E001900D928150E1F7F3
:100940008E8181950E948F0A0E949F0A20912F0418
:10095000309130048C01021B130B159507950E94F2
:100960009F0A02969093300480932F042F818885EC
:1009700090E0820F911D03962E81820F911D880FAA
:10098000991F0E94F7068F810E948F0AC6010E945C
:10099000690A8B899E2D0E94690AC8010E94690A12
:1009A0008B8AE92C69807A80640C751C80E091C088
:1009B000C4010E94430D83E08CC034EBF31669F44C
:1009C0000E94760A0E947706F4013196EE0FFF1F0F
:1009D000E80FF91F80819181C8CE85EBF816A9F444
:1009E0000E94760A182F092F282F392FC9016C0170
:1009F0000E94760A0E947706F4013196EE0FFF1FDF
:100A0000E80FF91F1083018397C09BEBF91621F4BF
:100A1000C4010E948D0190C0ECEBFE1659F40E94B7
:100A2000760A692D0E940B0890E090680E94690A7E
:100A300082E052C0FEEBFF1629F40E94760A0E9463
:100A4000F2073AC024E5F21669F40E94210B182F30
:100A50000E94210B6C010E94760AB601412F0E9470
:100A6000D0072CC03FE4F31669F40E94210B8C01DF
:100A70000E94210B6C010E94760AB601A8010E9417
:100A8000B0071CC083E3F81661F40E94210B6C01CF
:100A90000E94760AB6010E94C407992787FD9095A7
:100AA0000BC09EE2F91661F40E94210B6C010E94BA
:100AB000760AB6010E94A1070E94690A81E00CC073
:100AC0008EE00E942A0881E004C083E0ECEAFE1672
:100AD00031F0F1EBFF1619F0680E711C8CCC8F8190
:100AE00081950E948F0A28858F8190E0820F911D49
:100AF0002E81820F911D880F991F0E9444066396D4
:100B00000FB6F894DEBF0FBECDBFCF91DF911F911E
:100B10000F91FF90EF90DF90CF90BF90AF909F909C
:100B20008F907F906F905F904F903F902F9008959F
:100B300091E0892E912C99CE83E0CECFCF93DF9395
:100B4000EC0197FD03C08DE00E942A08CE01807061
:100B5000907C8050904821F48C2F0E94770604C02E
:100B6000CE019F730E94B500DF91CF9108950E943E
:100B70003B060E94CE000E942F0B80E090E00E9476
:100B8000690A089581E394E00895482F2091240490
:100B9000309125040CC0F901EF5CFB4F8081841774
:100BA00061F0818192819F770396280F391F83E03E
:100BB0002030380780F3E0E0F0E0CF0108951F9384
:100BC00011E0812F0E94C505892B11F01F5FC9F725
:100BD000812F1F910895A82FB0E0B06840912404A0
:100BE000509125041DC0FA01EF5CFB4F2181328139
:100BF00037FF11C0C90196958795782F60E009C02D
:100C00008381948132968A179B0711F481E00895BD
:100C10006F5F6717A8F33F772D5F3F4F420F531F5A
:100C200083E040305807F8F280E00895782F9A0169
:100C30002D5F3F4FA0912404B0912504FD01EF5C8E
:100C4000FB4F818192818217930710F480E0089511
:100C5000821B930B92838183FC01EA0FFB1FEC5CE8
:100C6000FB4F7083662311F0506801C05F77528399
:100C7000418381E00895109231048DEF92E09093CA
:100C800033048093320408950F931F93CF93DF931F
:100C90008C01C0912404D0912504CF5CDB4F888166
:100CA000882319F081E00E942A0880912404909101
:100CB00025048017910718F485E00E942A0889818D
:100CC0009A81E0912404F0912504E01BF10BF0934C
:100CD0002504E0932404EF5CFB4F1082800F911FEA
:100CE00092838183DF91CF911F910F910895CF93CC
:100CF000DF930E94C505EC01009719F483E00E9480
:100D00002A089E012D5F3F4FC901DF91CF910895C1
:100D1000CF93DF930E94C505EC01009719F483E09F
:100D20000E942A0829813A813F77C901DF91CF913A
:100D30000895EF92FF920F931F93CF93DF93E0906C
:100D40002404F09025043EC087010F5C1B4FF8017E
:100D5000C181D281DF7723968081882389F10E9427
:100D6000D20A882369F5F80180810E94EB05882367
:100D700039F580912404909125049701281B390BA3
:100D8000FE01E80FF91FEF5CFB4FE20FF31FDC01E0
:100D9000AF5CBB4FA20FB31F04C08E918293215052
:100DA000304021153105C9F7E0912404F091250464
:100DB000EF5CFB4F818192818C0F9D1F9283818319
:100DC000EC0EFD1EF0E0EF16F3E0FF0608F4BCCFDA
:100DD00080E0E81683E0F80619F081E00E942A0816
:100DE000DF91CF911F910F91FF90EF9008950F9396
:100DF0001F93CF93DF938C01C0912404D0912504DD
:100E0000CF5CDB4F8881882319F081E00E942A089B
:100E100089819A818017910710F40E9499060980B0
:100E2000DA81C02DC017D10718F484E00E942A0887
:100E3000E0912404F0912504E00FF11FF0932504C4
:100E4000E0932404EF5CFB4F1082C01BD10BD283D4
:100E5000C183DF91CF911F910F910895FF920F935E
:100E60001F93CF93DF93F82E8B01E0912404F09130
:100E70002504EF5CFB4F9B012D5F3F4F81819281E9
:100E80008217930710F40E9499068F2D0E94C505C2
:100E9000EC0160E089819A8197FD61E08F2DA801C6
:100EA0000E941606882319F482E00E942A088F2DDA
:100EB0000E94C50549815A815F77DE01FC0106C0A9
:100EC00012968C9112978283415050401196319620
:100ED00041155105A9F71882DF91CF911F910F910C
:100EE000FF9008950F931F93CF93DF93082FEB018B
:100EF0000E94DF05182F882319F486E00E942A0833
:100F0000812F602FAE010E9416068823A1F40E9453
:100F100099060E94DF05182F882319F486E00E94A5
:100F20002A08812F602FAE010E941606882319F42B
:100F300082E00E942A08812FDF91CF911F910F91AB
:100F400008950F931F938B010E947706000F111FC6
:100F5000080F191FF801818192811F910F91089547
:100F6000EF92FF920F931F938B017A010E947706F5
:100F7000000F111F080F191FF801F282E1821F9163
:100F80000F91FF90EF9008950F931F938B010E9494
:100F90007706080F191FF80181811F910F9108959D
:100FA000FF920F931F938B01F42E0E947706080F78
:100FB000191FF801F1821F910F91FF900895982F4A
:100FC0008450823058F0983049F0993049F09A3086
:100FD00039F087E00E942A0880E0089581E00895B2
:100FE00082E00895EF92FF921F93182F0E948806C7
:100FF0007C01812F0E947706FC0180810E94DF071F
:10100000682FC701019770E00E947F0DCB011F91EF
:10101000FF90EF900895FF920F931F938C01F62E8F
:10102000862F0E94DF0790E0809FB001819F700DA6
:10103000909F700D11246F5F7F4F80E00E947207B8
:10104000182F0E947706FC01F082812F1F910F91CB
:10105000FF9008951F93182F85E40E94A90B82E545
:101060000E94A90B82E50E94A90B8AE30E94A90BAA
:10107000812F8F5B0E94A90B8AE00E94A90BFFCFF2
:101080008F929F92AF92BF92CF92DF92EF92FF9298
:101090000F931F93DF93CF93CDB7DEB764970FB64F
:1010A000F894DEBF0FBECDBF0E94A200082FF92E1C
:1010B00085E10E94950B10E009C00000019623E233
:1010C000873B9207D1F71F5F1A3F39F00E948E0BC2
:1010D000882319F480E090E0F1CF0E948E0B8823E2
:1010E00009F458C0802F9F2D9C018901FF24F3949F
:1010F0004E010894811C911C94E0C92ED12CCC0E79
:10110000DD1E84E1A82EB12CAC0EBD1EC40164E12D
:101110000E94BA0B843159F5A601D60160E08D9189
:10112000680FAA15BB05D9F78981813049F5EA8096
:10113000EF1431F52B8130E08F2D809590E028174A
:101140003907F1F48C898617D9F49801FA01819155
:10115000AF01F90181939F014A175B07B9F7005F5F
:101160001F4F86E00E94950BFE2CF3940CC0882341
:1011700021F486E00E94950BC9CF89818A3119F04C
:1011800085E10E94950B89818A3109F0BFCF86E005
:101190000E94950B64960FB6F894DEBF0FBECDBFCC
:1011A000CF91DF911F910F91FF90EF90DF90CF9043
:1011B000BF90AF909F908F900895EF92FF920F9302
:1011C0001F93CF93DF93EC01FB0177FF05C08DE206
:1011D0008993F095E195FF4F20E137E2EE2400E09E
:1011E00010E0CF01B9010E94930DCB01611571058B
:1011F00019F0EE24E39405C0EE2019F421303105F6
:1012000011F4805D8993C9016AE070E00E94930D3A
:10121000462FF72E0F5F1F4F0530110551F0CF01FC
:10122000B9010E94930DFC01242F3F2DC9019C019F
:10123000D8CF1882DF91CF911F910F91FF90EF903F
:101240000895AF92BF92CF92DF92EF92FF920F93E9
:101250001F93DF93CF9300D00F920F92CDB7DEB7DD
:10126000F82E882329F40E94040BFC011082A3C0ED
:1012700081E0F81629F580E00E94F50ADC010D9066
:101280000020E9F78D0101501040081B190B81E087
:101290000E94820A0F5F1F4FB8010E942E0780E054
:1012A0000E94F50A8C0181E00E94820A0E94770662
:1012B000B8010E94B10D0E94760A0E94760A7BC096
:1012C0008F2D8250833028F0B6E0FB1609F06DC0F8
:1012D00026C082E0F81691F480E00E94F50A9C0195
:1012E000D82EE32EE82FF32FDF010D900020E9F731
:1012F0008D01015010400E1B1F0B22C0B3E0FB16E6
:1013000071F480E00E94120BBC01CE0101960E9494
:10131000DD0800E010E09E012F5F3F4F08C080E035
:101320000E94820A89831A82F4CF0F5F1F4FF9014E
:10133000E00FF11F80818823C1F7C901D22EE92E69
:1013400081E00E94F50ADC010D900020E9F7A81B5E
:10135000B90BA00FB11F80E0BD010E947207C82E1B
:1013600081E00E94F50A5C0182E0F81631F480E029
:101370000E94F50A9C01D82EE32E8C2D0E94770640
:10138000182F092FB5010E94B10D812F902F6D2DBF
:101390007E2D0E94A60D0E94760A0E94760A8C2D50
:1013A00090E090680E94690A06C0A5E0FA1619F05C
:1013B00088E00E942A080F900F900F900F900F90D6
:1013C000CF91DF911F910F91FF90EF90DF90CF9021
:1013D000BF90AF9008951F93182F0E94760A113086
:1013E00019F40E948E0B04C0123031F40E949D0B40
:1013F00090E00E94690A03C088E00E942A081F91B9
:1014000008951F93CF93DF93EC01162F03C021960D
:101410000E94A90B88818823D1F7112319F08AE053
:101420000E94A90BDF91CF911F9108950F931F93F5
:10143000DF93CF93CDB7DEB728970FB6F894DEBF12
:101440000FBECDBF813019F40E94040B0CC0823056
:1014500071F40E94210BBC018E010F5F1F4FC80168
:101460000E94DD08C80161E00E94010A25C08430A5
:1014700019F40E94040B0CC0853061F40E94210B0A
:10148000BC018E010F5F1F4FC8010E94DD08C8011B
:1014900060E0EACF833031F40E94210B0E94A90B57
:1014A0008AE004C0863029F40E94210B0E94A90B17
:1014B00003C088E00E942A080E94760A28960FB688
:1014C000F894DEBF0FBECDBFCF91DF911F910F917A
:1014D0000895E0912804F09129043296F0932904AC
:1014E000E09328043297938382830895E09128043F
:1014F000F0912904808191813297F0932904E0933F
:1015000028040895282F30E0220F331FE09128048B
:10151000F0912904E21BF30B8081918108959927B2
:1015200087FD9095880F991F2091280430912904F8
:10153000280F391F3093290420932804089580919F
:101540002804909129040895880F991FE09126049A
:10155000F0912704E80FF91F808191810895880F89
:10156000991FE0912604F0912704E80FF91F718379
:1015700060830895809128049091290490932B040E
:1015800080932A04089540E0209128043091290492
:1015900080912A0490912B042817390709F441E01F
:1015A000842F0895682F70E07068809126049091D0
:1015B00027042091280430912904281B390B3595E4
:1015C00027952F5F3F4FFC0140E050E009C081911B
:1015D00091918617970711F481E008954F5F5F4F4F
:1015E00042175307A0F380E00895282F30E0220F20
:1015F000331FE0912804F0912904E21BF30B808152
:1016000091810E949E050895E0912804F09129049B
:10161000808191813297F0932904E09328040E94FD
:101620009E050895282F30E0220F331FE0912804F3
:10163000F0912904E21BF30B808191810E948801C3
:101640000895E0912804F0912904808191813297D6
:10165000F0932904E09328040E94880108950F93D1
:101660001F93082F0E94C2059C019093270480932A
:10167000260422503040309329042093280410E09F
:10168000C8010196880F991F0E94F706000F111FCD
:101690008091280490912904800F911F9093290430
:1016A000809328041F910F91089510923107109292
:1016B000520780E190E09093C5008093C40010929F
:1016C000C00088E98093C10086E08093C2008FEF5C
:1016D00084B9789408951F920F920FB60F920BB6AB
:1016E0000F9211248F939F93EF93FF938091310773
:1016F0009091C600E2E3F7E0E80FF11D90838F5F61
:101700008F7180933107FF91EF919F918F910F908F
:101710000BBE0F900FBE0F901F9018958091310750
:1017200090915207891B8F710895982F8091C00066
:1017300085FFFCCF9093C600089590915207E2E395
:10174000F7E0E90FF11D80819F5F9F719093520731
:101750000895982F8A3039F48091C00085FFFCCF1E
:101760008DE08093C6008091C00085FFFCCF9093F0
:10177000C6000895EF92FF920F931F93CF93DF93CC
:10178000E82E062F282F392FE90114C000000196FA
:1017900022EB83399207D1F7112399F011500E945F
:1017A0008E0B882319F480E090E0F1CF0E949D0B0E
:1017B00089930150CE018E19F82E002311F01AE002
:1017C000EECF8F2DDF91CF911F910F91FF90EF9072
:1017D00008951F920F920FB60F9211248F939F932B
:1017E000109285001092840080912C0490912D0419
:1017F000019690932D0480932C049F918F910F90CC
:101800000FBE0F901F90189585B5887F85BD85B553
:10181000826085BD81E080936E00789408951F9367
:10182000813079F40E94760A182F0E94760A81305E
:1018300009F58091B1001770887F812B8093B100EA
:1018400019C08230A1F40E94760A182F0E94760AED
:10185000813081F483E08093B0008091B100877083
:1018600080688093B100279A1093B30003C088E08A
:101870000E942A081F9108951F93813061F40E94ED
:10188000760A182F0E94760AE82FF0E0EE0FFF1F6D
:10189000E45FFB4F36C0823061F40E94760A182F55
:1018A0000E94760AE82FF0E0EE0FFF1FE45FFB4F87
:1018B0000DC08330C9F40E94760A182F0E94760A60
:1018C000E82FF0E0EE0FFF1FE050FC4F0190F08199
:1018D000E02D208181E090E002C0880F991F1A95C9
:1018E000E2F7282B20831FC08430D1F40E94760AAF
:1018F000182F0E94760AE82FF0E0EE0FFF1FE0504D
:10190000FC4F0190F081E02D208181E090E002C049
:10191000880F991F1A95E2F780958223808303C070
:1019200088E00E942A081F9108951F93813039F49E
:101930000E94210B8770806880937A004DC08230AE
:1019400031F40E94210B807C80937C0045C0833061
:1019500001F510917C000E94210B8F70107C812B6F
:1019600080937C0080917A00806480937A008091DB
:101970007A0084FFFCCF80917A00806180937A00A6
:101980003091780020917900922F80E0830F911D93
:101990001DC08430F1F410917C000E94210B107C5A
:1019A0008F70182B106210937C0080917A008064F5
:1019B00080937A0080917A0084FFFCCF80917A0036
:1019C000806180937A008091790090E00E94690A9A
:1019D00003C088E00E942A081F910895813039F4DD
:1019E0000E94210B90938900809388000895823093
:1019F00039F480912C0490912D040E94690A089575
:101A0000833079F40E94210B9C0110922D041092D6
:101A10002C0480912C0490912D0482179307CCF311
:101A20000895843029F40E94210B80938100089549
:101A300088E00E942A080895813029F480E89EE316
:101A40000E94690A089588E00E942A080895292FB3
:101A500030E02431310551F480E061E070E00E9413
:101A6000720790E090680E94690A089589E00E94D8
:101A70002A080895882319F40E94760A089588E0B8
:101A80000E942A080895292F30E02031310519F4E9
:101A90000E943A0D08952231310519F40E94160A68
:101AA00008952331310519F40E94EB09089524317A
:101AB000310519F40E94210908952531310519F4E1
:101AC0000E941C0D08952631310519F40E943C0C2A
:101AD00008952731310519F40E94EE0C08952A313A
:101AE000310519F40E94950C08952931310519F436
:101AF0000E940F0C089589E00E942A080895AA1BED
:101B0000BB1B51E107C0AA1FBB1FA617B70710F0E8
:101B1000A61BB70B881F991F5A95A9F7809590951A
:101B2000BC01CD01089597FB092E07260AD077FD49
:101B300004D0E5DF06D000201AF4709561957F4F40
:101B40000895F6F7909581959F4F0895FB01DC016C
:101B50000D900020E9F7119701900D920020E1F718
:101B60000895FB01DC0101900D920020E1F708953A
:041B7000F894FFCF17
:101B7400000000BE02020100110011005E0000100E
:101B840000040020004E616E6F564D202D20726FB0
:101B94007431332F726F7435206578616D706C65A4
:101BA40000506C6561736520656E746572207465A0
:101BB400787420746F20626520656E636F64656459
:101BC4002F6465636F64656431202E2E2E0010002F
:101BD4000000000101010D000100000104021AB718
:101BE4001000B11111001200B612011111001201FE
:101BF400B61201053C063D1B1C683D1111001CB6C4
:101C04001202111101B6130199FFFA111101B61351
:101C1400023E1D1041A100181D105AA30012840396
:101C24000D1D105AA4003C8403E6A700361D106164
:101C3400A100181D107AA3001284030D1D107AA4AC
:101C440000218403E6A7001B1D1030A100151D1000
:101C540039A3000F8403051D1039A400068403F67C
:101C64001111001D00B61206A7FF9A000000BE0263
:101C7400020100110011005E0000000000000000DD
:101C84000000000000000000000000000000000050
:101C94000000000000000000000000000000000040
:101CA4000000000000000000000000000000000030
:101CB4000000000000000000000000000000000020
:101CC4000000000000000000000000000000000010
:101CD4000000000000000000000000000000000000
:101CE40000000000000000000000000000000000F0
:101CF40000000000000000000000000000000000E0
:101D040000000000000000000000000000000000CF
:101D140000000000000000000000000000000000BF
:101D240000000000000000000000000000000000AF
:101D3400000000000000000000000000000000009F
:101D4400000000000000000000000000000000008F
:101D5400000000000000000000000000000000007F
:101D6400000000000000000000000000000000006F
:101D74002200250028002B002E0031002100240021
:101D840027002A002D00300020002300260029000F
:041D94002C002F00F0
:00000001FF
