:100000000C9472000C9493000C9493000C94930045
:100010000C9493000C9493000C9493000C94930014
:100020000C9493000C9493000C9493000C94930004
:100030000C9493000C9493000C9493000C949300F4
:100040000C9493000C948E0C0C9493000C949300DD
:100050000C9493000C9493000C9493000C949300D4
:100060000C9493000C94300C0C9493000C9493001B
:100070000C9493000C9493000C9493000C949300B4
:100080000C9493000C9493000C9493000C949300A4
:100090000C9493000C9493000C9493000C94930094
:1000A0000C9493000C9493000C9493000C94930084
:1000B0000C9493000C9493000C9493000C94930074
:1000C0000C9493000C9493000C9493000C94930064
:1000D0000C9493000C9493000C9493000C94930054
:1000E0000C94930011241FBECFEFD1E2DEBFCDBF31
:1000F00000E00CBF13E0A0E0B2E0E2E1FDE100E0CF
:100100000BBF02C007900D92A232B107D9F716E0DB
:10011000A2E2B3E001C01D92A135B107E1F70E9450
:1001200095000C94870E0C94000084B7877F84BFE1
:1001300088E10FB6F89480936000109260000FBEC3
:100140000E94AC0C0E9404010E94F4040E94D6009C
:10015000FFCF9C01220F331F220F331F220F331FAB
:1001600080910C0290910D02280F391F20503E4FB4
:10017000C901089520910A0230910B0220503E4F90
:10018000FC01EE0FFF1FE20FF31F40815181420F70
:10019000531FCA010895E82FF0E0EE0FFF1FE05F44
:1001A000FD4F8081089580910E0208951F93409124
:1001B0000502442309F110E003C01F5F1417E0F4A7
:1001C000212F30E0F901EE0FFF1FEE0FFF1FEE0FA2
:1001D000FF1F80910C0290910D02E80FF91FE05073
:1001E000FE4F848180FFE9CFC9010E9469014091DF
:1001F00005021F5F141720F38091060290910702F9
:100200000E9469011F91089580910002909101025E
:10021000A0910202B09103029C01AD015E6B80705F
:100220009070A070BE7B82179307A407B507D9F41E
:1002300080910402823091F480910A0290910B0225
:100240002091080230910902821B930B96958795A5
:100250009695879580932C0381E008958CE00E9409
:100260008C0880E008958BE00E948C0880E008955F
:100270009C0196FD3068C9010895FF920F931F936A
:10028000F82E092F892F90E08031910540F08F2DB5
:10029000902F0E94DE0D1F910F91FF9008950E94F4
:1002A000CB00682F70E06F5F7F4F660F771F81E094
:1002B0000E946B05182F90E090680E943C0B812FE4
:1002C0000E944405FC01F08201831F910F91FF9071
:1002D00008952F923F924F925F926F927F928F92EA
:1002E0009F92AF92BF92CF92DF92EF92FF920F93C5
:1002F0001F93DF93CF93CDB7DEB72E970FB6F89449
:10030000DEBF0FBECDBF982E892E0E94A9003C01F2
:1003100083E0282E312C2C0E3D1ED101F30188E004
:1003200001900D928150E1F7EB80FC80E60CF71C08
:100330002A85898590E0820F911D2885820F911D65
:10034000880F991F0E9497060E94720B0296909345
:100350002E0380932D0389850E94620B0E948D0BD2
:1003600044245524F70101915F01F70191819A839B
:1003700012E0C12ED12CCE0CDF1C22812983002358
:1003800009F4B0C0003109F4BAC0013109F4BEC0AB
:10039000802F8250873008F4ACC0063309F4D5C0F2
:1003A000802F8B53843008F4BCC0053109F41EC182
:1003B000802F8A51843008F409C1802F89598C30EC
:1003C00008F0D8C0863008F0A5C10A5FCC24DD242F
:1003D0000E94FC0B2C01013A09F4DAC1023A08F040
:1003E0001CC10F3909F4CCC1003A09F4C1C1411450
:1003F000510409F40CC1A980BA80AE0CBF1C0C3AA0
:1004000031F0E92CF82C6501013B09F067C08985C2
:1004100081950E94620B2A85898590E0820F911D4B
:100420002885820F911D880F991F0E940B052E961B
:100430000FB6F894DEBF0FBECDBFCF91DF911F91F5
:100440000F91FF90EF90DF90CF90BF90AF909F9073
:100450008F907F906F905F904F903F902F90089576
:100460000E94490B2C010E94960B882341F6998427
:100470001A85190D1D5F8885180F0E94490B6C01A4
:100480000E94490B7C010E94A9003C01D101FC01A2
:1004900088E001900D928150E1F70E94490B5301D1
:1004A000A80EB91E892D81950E94620B0E94720BC5
:1004B000CC0CDD1C8C199D0990932E0380932D0389
:1004C000812F90E0880F991F0E940B050C3A09F4C8
:1004D0002CC293E0C92ED12CCA0CDB1C9E2C8F2C75
:1004E000760140CF6501E92CF82C9E2C8F2C7601EB
:1004F00039CF802F90E003970E943C0B80CF892F4B
:10050000992787FD90950E943C0BEDCF89819A81B8
:100510009F770E943C0BB3E0CB2ED12CCE0CDF1C7E
:10052000E2CF802F90E0CB97880F991F20912D0369
:1005300030912E03280F391F3C872B870E94490BCF
:10054000EB85FC85918380835ACF892F992787FD7E
:100550009095880F991F20912D0330912E03280F1D
:10056000391F3E872D870E94490BED85FE859183BB
:100570008083B9CF073A09F4C8C0802F80568532EE
:1005800008F05AC0043709F413C1043809F4C6C08E
:100590000E94FC0B2C010E94FC0B7C01083709F423
:1005A00084C1093708F010C1083609F45FC1093663
:1005B00008F043C1003609F461C1043611F4E418AF
:1005C000F508C7019F770E943C0B19CF802F90E060
:1005D0004A97880F991FE0912D03F0912E03E80FA1
:1005E000F91F808191810E943C0B09CF892F9927A7
:1005F00087FD9095880F991FE0912D03F0912E03B0
:10060000E80FF91F808191810E943C0B6CCF33E091
:10061000A32EB12CAE0CBF1CF2CE033A09F4C0C01D
:10062000033A08F09AC080E090E04C145D0414F0A6
:1006300081E090E02C01DBCE0C3A09F411CF013BB4
:1006400009F411CF083509F4D1C0073509F4D6C033
:10065000093509F4E9C00C3509F401C1023B09F47C
:100660002EC1033B09F437C1023109F444C1802F84
:10067000865B833008F0C8C09A8190310CF049C184
:10068000270146185708E980F92E8E2D0E94A900EF
:100690003C01D101FC0188E001900D928150E1F70D
:1006A000888581950E94620B0E94720B20912D0318
:1006B00030912E036C01C21AD30AD594C7940E94BC
:1006C000720B029690932E0380932D0329858A85C1
:1006D00090E0820F911D03962885820F911D880F4F
:1006E000991F0E94970689850E94620BC2010E9491
:1006F0003C0B892D982D0E943C0BC6010E943C0B9F
:10070000CB80DC80C60CD71C7FCEC980DA80CE0CB3
:10071000DF1CE9CE0E94FC0B6C015ACE8A8199271E
:1007200087FD9095880F991FE0912D03F0912E037E
:10073000E80FF91F4081518156FD5068822F99279B
:1007400087FD9095480F591F5F775183408353E091
:10075000C52ED12CCE0CDF1CC6CE043A09F047CEF4
:1007600080E090E0C414D5040CF062CF2C013FCEA1
:1007700080E090E0C414D50409F05ACF2C0137CEA4
:1007800080E090E0C414D50409F452CF2C012FCEA0
:1007900080E090E04C145D040CF44ACF2C0127CE8D
:1007A00080E090E0C414D5040CF442CF2C011FCE9D
:1007B0000E94FC0B44245524481A590AC2019F7711
:1007C0000E943C0B65018FCE0E3709F461C00F37D4
:1007D000F0F50A3709F455C00C3709F0F2CE042CB5
:1007E00002C0F694E7940A94E2F7EBCE0E94490B1C
:1007F0000E94490BE92CF82C650170CE0E94490B30
:10080000E92CF82C65016ACE043B09F4C4C0053B11
:1008100009F4A4C00B3B09F491C08EE00E948C083F
:10082000E92CF82C6501F0CD80E00E94550B0E9468
:100830003C0BE92CF82C650151CE0C3661F10037E8
:1008400009F0BFCEB2010E94330E7C01BACE00384F
:1008500099F1023809F0B5CEE424F524B2CE81E056
:100860000E94550B0E943C0B81E0DFCF849D7001FC
:10087000859DF00C949DF00C1124A3CEE40CF51C86
:10088000A0CE042C02C0F594E7940A94E2F799CE26
:10089000E420F52096CE4114510409F45BC0C70151
:1008A000B2010E94330E7B018CCE042C02C0EE0CF0
:1008B000FF1C0A94E2F785CEE428F52882CE8981D0
:1008C0009A810E94770B0E943C0B73E0C72ED12CBB
:1008D000CE0CDF1C08CEC980DA800E94490BBC0117
:1008E000C6010E94820B93E0C92ED12CCE0CDF1CD6
:1008F000E92CF82CF3CD8A81992787FD90952091DA
:100900002C03821B9109906C0E943C0BE92CF82C63
:10091000E5CD89819A810E94F10DB3E0CB2ED12CD7
:10092000CE0CDF1CE92CF82C6FCDC2010E943C0BD1
:1009300023E0C22ED12CCA0CDB1CD0CD89819A8138
:100940000E943D0143E0C42ED12CCE0CDF1CE92CCB
:10095000F82CC4CD8FE00E948C08A1CF0E94490BD7
:10096000182FD92E282F392FC9012C010E94490B8D
:100970000E944405E981FA813196EE0FFF1FE80FCE
:10098000F91F1083D18253E0C52ED12CCE0CDF1C71
:10099000E92CF82CA3CD0E94490B0E944405E98163
:1009A000FA813196EE0FFF1FE80FF91F80819181C8
:1009B0008ACFCF93DF93EC0197FD03C08DE00E94B7
:1009C0008C08CE018070907C8050904839F0CE0128
:1009D0009F730E94BA00DF91CF9108958C2F0E94DF
:1009E0004405DF91CF9108950E9402050E94D30033
:1009F0000E940A0C80E090E00E943C0B08958FE278
:100A000093E0089510922F038DEF92E090933103BD
:100A10008093300308950F931F93CF93DF93EC01DE
:100A2000E0912203F09123038F01015D1C4FD80157
:100A30008C91882309F5EC17FD0738F485E00E94B6
:100A40008C08E0912203F0912303D80111968D9137
:100A50009C911297EC1BFD0BF0932303E093220370
:100A6000E15DFC4F10828C0F9D1F92838183DF918B
:100A7000CF911F910F91089581E00E948C08E09121
:100A80002203F0912303D7CF482F209122033091E6
:100A9000230383E02030380758F017C0818192810A
:100AA0009F770396280F391F83E02030380768F4BA
:100AB000F901E15DFC4F8081481781F7309729F0FB
:100AC0009F012D5F3F4FC901089583E00E948C086C
:100AD00023E030E0F8CF9F92AF92BF92CF92DF92A7
:100AE000EF92FF920F931F93CF93DF93982E5B01AA
:100AF0004091220350912303DA01A15DBC4F23E012
:100B00004030520708F4AAC011E033E0C32ED12CC4
:100B1000CA0CDB1C7A01EA01C15DDC4F89819A8134
:100B20008C159D0500F18C199D099A838983FC0120
:100B3000E40FF51FEE5CFC4F1083992089F4B5019A
:100B40007F7772836183812FDF91CF911F910F9106
:100B5000FF90EF90DF90CF90BF90AF909F9008955F
:100B6000B5017068EECF23E04030520770F054C0FA
:100B7000E00EF11E80E0E81683E0F80608F04CC0B5
:100B8000E701C15DDC4F89819A818C011F770D5F80
:100B90001F4F8881882361F30E94A70B882341F7A8
:100BA0008881C82FD0E0D068609122037091230320
:100BB00083E06030780708F07BC0DB010BC0AC013C
:100BC0005F774D5F5F4FA40FB51F23E0A030B207E2
:100BD00008F06EC0FD01E15DFC4F8181928197FFBD
:100BE000EECFAC015F77CA0196958795382F8823A1
:100BF00041F383819481C817D90709F4B9CF20E064
:100C000007C0858196813296C817D90709F4B0CFFD
:100C10002F5F2317B0F3D5CF20E0E21623E0F206D2
:100C200019F081E00E948C08409122035091230327
:100C3000DA01A15DBC4F83E04030580708F451C091
:100C400011E0FA01E15DFC4F818192818C159D05D7
:100C500058F18C199D099283818369CF11E06C91C1
:100C6000161701F1FD019A01818192819F77039608
:100C7000280F391F83E02030380708F046CFF901EC
:100C8000E15DFC4F8081181779F7EF2B09F43DCF18
:100C90001F5F31F786E00E948C084091220350913B
:100CA000230333CFFD01F1CF82E00E948C084BCFAC
:100CB000C801860F971FA701461B570B815D9C4FEC
:100CC000615D7C4F0E94630EE0912203F09123034B
:100CD000E15DFC4F81819281800F911F928381831E
:100CE00047CF11E06C91161701F1FD019A01818146
:100CF00092819F770396280F391F83E020303807B1
:100D000008F09FCFF901E15DFC4F8081181779F75A
:100D1000EF2B09F496CF1F5F31F786E00E948C0815
:100D200040912203509123038CCFFD01F1CFAF926C
:100D3000BF92CF92DF92EF92FF920F931F93CF93C8
:100D4000DF936C0160912203709123033FE2A32E95
:100D500033E0B32EA60EB71EF50180818823F9F487
:100D6000F501C181D281CC15DD0530F1F601E60F28
:100D7000F71FF0932303E0932203E15DFC4F108201
:100D8000CC19DD09D283C183DF91CF911F910F91DF
:100D9000FF90EF90DF90CF90BF90AF90089581E0EB
:100DA0000E948C086091220370912303F501C18198
:100DB000D281CC15DD05D0F67B01F3E060307F07F2
:100DC00048F052C0E00EF11EF0E0EF16F3E0FF062F
:100DD00008F04AC0E701C15DDC4F09811A811F7725
:100DE0000D5F1F4F8881882369F30E94A70B88231A
:100DF00049F78881C82FD0E0D068609122037091B4
:100E0000230383E06030780708F044C0DB010AC0A8
:100E1000AC015F774D5F5F4FA40FB51FE3E0A030DB
:100E2000BE07C0F5FD01E15DFC4F8181928197FF16
:100E3000EFCFAC015F77CA0196958795382F88234D
:100E400049F383819481C817D90709F4BBCF20E007
:100E500007C0858196813296C817D90709F4B2CFA9
:100E60002F5F2317B0F3D6CF80E0E81683E0F806B3
:100E700019F081E00E948C08F501C181D281CC1566
:100E8000DD0518F484E00E948C08609122037091C3
:100E900023036CCFC801860F971FA701461B570B72
:100EA000815D9C4F615D7C4F0E94630EE091220347
:100EB000F0912303E15DFC4F81819281800F911FAE
:100EC000928381837FCF8F929F92AF92BF92DF9266
:100ED000EF92FF920F931F93CF93DF93D82E4B0186
:100EE0000091220310912303B801E801C15DDC4F9A
:100EF00089819A8143E0A42EB12CA80CB91C8A15D3
:100F00009B0508F47DC023E06030720708F0FCC048
:100F1000EB01C15DDC4F8881D81609F4FBC0FE01EE
:100F20009B0107C0F901E15DFC4F8081D81609F4EF
:100F300064C0818192819F770396280F391F83E0D7
:100F40002030380778F3DE01C0E0D0E029813A8113
:100F500011968D919C9112978A159B0508F449C0B2
:100F60008A199B0912969C938E931197FC01E60FA8
:100F7000F71FEE5CFC4FD08237FFAAC0B401706847
:100F800072836183209122033091230393E0203008
:100F9000390758F02BC0818192819F770396280FE3
:100FA000391F83E02030380708F5F901E15DFC4F77
:100FB0008081D81681F7BF016D5F7F4F29813A810B
:100FC0003F77AE014D5F5F4FCB01BA01A9010E948F
:100FD0005A0E1882DF91CF911F910F91FF90EF90E1
:100FE000DF90BF90AF909F908F90089563E070E086
:100FF000E5CF82E00E948C08C5CFDE01EF01A6CFCD
:1010000023E00030120768F058C00E0D1F1D83E06A
:101010000030180708F051C0E801C15DDC4F89813C
:101020009A813FEFE32E3FE7F32EE822F92283E097
:1010300090E0E80EF91E8881882339F30E94A70BFF
:10104000882319F78881C82FD0E0D06860912203E7
:101050007091230393E06030790708F03CC0DB0116
:101060000AC0AC015F774D5F5F4FA40FB51F23E04F
:10107000A030B20780F5FD01E15DFC4F81819281D6
:1010800097FFEFCFAC015F77CA0196958795382F10
:10109000882349F383819481C817D90709F4B5CF10
:1010A00020E007C0858196813296C817D90709F4D8
:1010B000ACCF2F5F2317B0F3D6CF0050134019F0F9
:1010C00081E00E948C0860912203709123031BCF62
:1010D000B4017F7755CFC701860F971FA801461B24
:1010E000570B815D9C4F615D7C4F0E94630EE091C8
:1010F0002203F0912303E15DFC4F818192818E0DEB
:101100009F1D9283818381CFDB01A15DBC4FC0E035
:10111000D0E01CCFDE011ACF1F93182F85E40E9468
:101120007C0C82E50E947C0C82E50E947C0C8AE3A8
:101130000E947C0C812F8F5B0E947C0C8AE00E94B5
:101140007C0CFFCFFC019B0177FD52C0C90160E11F
:1011500077E20E94330ECB0161157105E1F540E0A5
:10116000C90160E177E20E94330E9C0168EE73E0F2
:101170000E94330ECB0161157105B9F141E0805D2C
:101180008193C90168EE73E00E94330E9C0164E60E
:1011900070E00E94330ECB016115710519F141E039
:1011A000805D8193C90164E670E00E94330E9C016A
:1011B0006AE070E00E94330ECB016115710579F48D
:1011C000442369F4C9016AE070E00E94330E805D37
:1011D000808311820895805D819341E0C1CF805D5D
:1011E0008193F0CF4423F1F2DBCF442351F2C7CFF8
:1011F0008DE28193309521953F4FA8CF1F93182FF3
:101200000E94490B113071F0123029F088E00E94E1
:101210008C081F9108950E94700C90E00E943C0B76
:101220001F9108950E94690C90E00E943C0B1F9151
:1012300008950F931F93DF93CF93CDB7DEB7289711
:101240000FB6F894DEBF0FBECDBF813021F18230E2
:10125000B9F1843009F494C0853009F4A2C0833018
:1012600091F0863041F188E00E948C080E94490B81
:1012700028960FB6F894DEBF0FBECDBFCF91DF9199
:101280001F910F9108950E94FC0B0E947C0C8AE034
:101290000E947C0CEBCF0E94DF0B8C01FC01808153
:1012A0008823A9F30F5F1F4F0E947C0CF8018081F7
:1012B0008823C1F7ECCF0E94FC0B0E947C0CD6CF98
:1012C0000E94FC0B9C0197FD91C0FE013196C90163
:1012D00060E177E20E94330ECB016115710509F0E0
:1012E00079C040E0C90160E177E20E94330E9C01C1
:1012F00068EE73E00E94330ECB016115710509F4AD
:1013000071C041E0805D8193C90168EE73E00E9485
:10131000330E9C0164E670E00E94330ECB01611530
:10132000710509F45BC041E0805D8193C90164E609
:1013300070E00E94330E9C016AE070E00E94330E60
:10134000CB016115710509F042C0442309F03FC08B
:10135000C9016AE070E00E94330E805D80831182D3
:101360008981882309F493CF8E010F5F1F4F0F5F90
:101370001F4F0E947C0CF80180818823C1F787CF22
:101380000E94DF0B8C01FC018081882309F46ECF61
:101390000F5F1F4F0E947C0CF80180818823C1F7EA
:1013A00065CF0E94FC0BBC018E010F5F1F4FC8016F
:1013B0000E94A2088981882309F458CF0F5F1F4F2C
:1013C0000E947C0CF80180818823C1F74FCF805D9B
:1013D0008193BECF805D819341E084CF442309F4A3
:1013E000A5CFA2CF442309F48FCF8CCF8DE2898380
:1013F000309521953F4FFE01329669CFAF92BF9253
:10140000CF92DF92EF92FF920F931F93DF93CF93D0
:1014100000D00F920F92CDB7DEB7982F882309F432
:1014200069C0813009F4BEC08250833008F059C0D1
:10143000923009F4E3C0933009F461C080E00E9467
:10144000550B89831A826E010894C11CD11CF601C8
:1014500001900020E9F78F01015010400C191D097F
:1014600081E00E94D00BFC0101900020E9F7319748
:10147000E81BF90B0E0F1F1F0F5F1F4F80E0B80115
:101480000E946B05F82E81E00E94D00B5C01C60122
:10149000DC2CE92E8F2D0E944405182F092FB50151
:1014A0000E94800E812F902F6D2D7E2D0E94750E33
:1014B0000E94490B0E94490B8F2D90E090680E947A
:1014C0003C0B0F900F900F900F900F90CF91DF91EA
:1014D0001F910F91FF90EF90DF90CF90BF90AF9052
:1014E0000895963009F4AACF953059F388E00E9408
:1014F0008C08E7CF0E94DF0BFC011082E2CF80E076
:101500000E94ED0B9C0197FDABC06E010894C11CBD
:10151000D11CF601C90160E177E20E94330ECB01D4
:101520006115710509F066C040E0C90160E177E22C
:101530000E94330E9C0168EE73E00E94330ECB01D3
:101540006115710509F484C041E0805D8193C90192
:1015500068EE73E00E94330E9C0164E670E00E9426
:10156000330ECB016115710509F476C041E0805D51
:101570008193C90164E670E00E94330E9C016AE029
:1015800070E00E94330ECB016115710581F5442393
:1015900071F5C9016AE070E00E94330E805D8083BE
:1015A000118255CF80E00E94D00BDC010D9000200D
:1015B000E9F78D0101501040081B190B81E00E94D2
:1015C000550B0F5F1F4FB8010E94630780E00E9418
:1015D000D00B8C0181E00E94550B0E944405B8019C
:1015E0000E94800E0E94490B0E94490B6ACF805DC9
:1015F0008193CFCF805D819341E097CF80E00E94BF
:10160000D00BDC010D900020E9F78D010150104056
:10161000081B190B81E00E94D00BFC0101900020F7
:10162000E9F73197E81BF90B0E0F1F1F0F5F1F4FD4
:1016300080E0B8010E946B05F82E81E00E94D00B7B
:101640005C0180E00E94D00B9C01D82EE32E22CFBB
:10165000442309F47CCF79CF442309F48ACF87CF80
:101660008DE28983309521953F4FFE0132966E01C0
:101670000894C11CD11C4ECFE0912603F0912703A2
:101680003296F0932703E093260332979383828365
:101690000895E0912603F09127038081918132978C
:1016A000F0932703E09326030895282F30E0220FBC
:1016B000331FE0912603F0912703E21BF30B808197
:1016C00091810895992787FD9095880F991F209102
:1016D000260330912703280F391F309327032093C7
:1016E0002603089580912603909127030895880F7B
:1016F000991FE0912403F0912503E80FF91F8081E1
:1017000091810895880F991FE0912403F09125039A
:10171000E80FF91F718360830895809126039091EB
:1017200027039093290380932803089540E0209194
:1017300026033091270380912803909129032817CD
:10174000390711F0842F089541E0842F0895E09126
:101750002403F091250340912603509127034E1B4B
:101760005F0B559547954F5F5F4FB1F0682F70E065
:101770007068808191818617970781F020E030E0C2
:1017800006C08281938132968617970739F02F5FC2
:101790003F4F24173507A8F380E0089581E00895AE
:1017A000282F30E0220F331FE0912603F09127030A
:1017B000E21BF30B808191810E94D9040895E0918E
:1017C0002603F0912703808191813297F0932703BC
:1017D000E09326030E94D9040895282F30E0220FB9
:1017E000331FE0912603F0912703E21BF30B808166
:1017F00091810E9438010895E0912603F09127031A
:10180000808191813297F0932703E09326030E9411
:10181000380108950F931F93082F0E94FF049C0125
:101820009093250380932403225030403093270364
:101830002093260310E0C8010196880F991F0E948B
:101840009706000F111F8091260390912703800FA8
:10185000911F90932703809326031F910F91089562
:101860001F920F920FB60F920BB60F9211242F9367
:101870003F934F935F936F938F939F93EF93FF9358
:1018800080912F069091C600E82FF0E0E05DF94FBF
:1018900090838F5F8F7180932F066FEF40E951E047
:1018A00065B920E030E0CA010197F1F72F5F3F4FA3
:1018B00081E02C323807B9F715B820E030E0CA01D2
:1018C0000197F1F72F5F3F4F81E02C323807B9F7CE
:1018D000E7CF80912F0690915006891B8F71089554
:1018E00090915006E0E3F6E0E90FF11D80819F5FE3
:1018F0009F71909350060895982F8A3039F0809107
:10190000C00085FFFCCF9093C60008958091C00071
:1019100085FFFCCF8DE08093C600F1CF1F920F9220
:101920000FB60F9211248F939F93109285001092FF
:10193000840080912A0390912B03019690932B03AE
:1019400080932A038FEF84B985B99F918F910F906F
:101950000FBE0F901F90189582E08093810080E168
:1019600097E29093890080938800EFE6F0E0808111
:10197000826080838FEF84B908951F938130D9F0FE
:10198000823029F088E00E948C081F9108950E94FF
:10199000490B182F0E94490B8130B9F783E08093DF
:1019A000B0008091B100877080688093B100239A65
:1019B0001093B300EACF0E94490B182F0E94490BE5
:1019C000813019F78091B1001770887F812B809347
:1019D000B100DBCF1F93813039F1823089F1833040
:1019E00009F448C0843029F088E00E948C081F91D7
:1019F00008950E94490B182F0E94490BE82FF0E030
:101A0000EE0FFF1FE65FFC4F0190F081E02D20817B
:101A100081E090E002C0880F991F1A95E2F7809547
:101A2000822380831F9108950E94490B182F0E94E2
:101A3000490BE82FF0E0EE0FFF1FEE5EFC4FE4CF06
:101A40000E94490B182F0E94490BE82FF0E0EE0F7F
:101A5000FF1FEE5EFC4F0190F081E02D208181E0C0
:101A600090E002C0880F991F1A95E2F7282B208377
:101A70001F9108950E94490B182F0E94490BE82FCF
:101A8000F0E0EE0FFF1FE65FFC4FE5CF1F938130C4
:101A900051F1823081F18330A9F1843029F088E05E
:101AA0000E948C081F91089510917C000E94FC0BED
:101AB000107C8F70182B106210937C0080917A003C
:101AC000806480937A0080917A0084FFFCCF8091BB
:101AD0007A00806180937A008091790090E00E9482
:101AE0003C0B1F9108950E94FC0B877080688093C7
:101AF0007A001F9108950E94FC0B807C80937C00EB
:101B00001F91089510917C000E94FC0B8F70107C37
:101B1000812B80937C0080917A00806480937A008E
:101B200080917A0084FFFCCF80917A00806180935D
:101B30007A003091780020917900922F80E0830F15
:101B4000911D0E943C0B1F910895813079F08230E5
:101B5000A1F08330C9F0843021F088E00E948C0825
:101B600008950E94FC0B8093810008950E94FC0B55
:101B70009093890080938800089580912A03909122
:101B80002B030E943C0B08950E94FC0B9C011092B9
:101B90002B0310922A0380912A0390912B03821722
:101BA0009307CCF30895813021F088E00E948C08DF
:101BB000089580E49FE10E943C0B0895292F30E0B6
:101BC0002431310521F089E00E948C08089580E0DD
:101BD00061E070E00E946B0590E090680E943C0B11
:101BE0000895292F30E020313105F9F022313105F7
:101BF00011F12331310511F12431310511F1253174
:101C0000310581F02631310529F12731310529F1DE
:101C10002A31310529F129313105B1F089E00E94DD
:101C20008C0808950E94D30D0895882381F088E0E0
:101C30000E948C0808950E94190908950E94FE08C8
:101C400008950E94FE0908950E94BD0C08950E9407
:101C5000490B08950E94EA0C08950E94A50D08956D
:101C60000E94460D089597FB092E07260AD077FD9E
:101C700004D00CD006D000201AF4709561957F4FE7
:101C80000895F6F7909581959F4F0895AA1BBB1B69
:101C900051E107C0AA1FBB1FA617B70710F0A61B6C
:101CA000B70B881F991F5A95A9F780959095BC018D
:101CB000CD010895FB01DC0102C001900D9241505D
:101CC0005040D8F708956817790768F4FB01DC01E4
:101CD000E40FF51FA40FB51F02C002900E924150F1
:101CE0005040D8F708950C945A0EFB01DC010D907A
:101CF0000020E9F7119701900D920020E1F7089577
:101D0000FB01DC0101900D920020E1F70895F894A9
:021D1000FFCF03
:101D1200000000BE02020100110011005E0000106E
:101D220000040020004E616E6F564D202D20726F10
:101D32007431332F726F7435206578616D706C6504
:101D420000506C6561736520656E74657220746500
:101D5200787420746F20626520656E636F646564B9
:101D62002F6465636F64656431202E2E2E0010008F
:101D72000000000101010D000100000104021AB778
:101D82001000B11111001200B6120111110012015E
:101D9200B61201053C063D1B1C683D1111001CB624
:101DA2001202111101B6130199FFFA111101B613B2
:101DB200023E1D1041A100181D105AA300128403F7
:101DC2000D1D105AA4003C8403E6A700361D1061C5
:101DD200A100181D107AA3001284030D1D107AA40D
:101DE20000218403E6A7001B1D1030A100151D1061
:101DF20039A3000F8403051D1039A400068403F6DD
:101E02001111001D00B61206A7FF9A000000BE02C3
:101E1200020100110011005E0000000025002800F0
:101E22002B000000240027002A00000023002600C7
:021E3200290085
:00000001FF
